{
  "_format": "hh-sol-artifact-1",
  "contractName": "DataStorage",
  "sourceName": "contracts/DataStorage.sol",
  "abi": [
    {
      "anonymous": false,
      "inputs": [
        {
          "indexed": false,
          "internalType": "uint256",
          "name": "id",
          "type": "uint256"
        },
        {
          "indexed": false,
          "internalType": "string",
          "name": "name",
          "type": "string"
        },
        {
          "indexed": false,
          "internalType": "string",
          "name": "description",
          "type": "string"
        }
      ],
      "name": "DataCreated",
      "type": "event"
    },
    {
      "anonymous": false,
      "inputs": [
        {
          "indexed": false,
          "internalType": "uint256",
          "name": "id",
          "type": "uint256"
        }
      ],
      "name": "DataDeleted",
      "type": "event"
    },
    {
      "anonymous": false,
      "inputs": [
        {
          "indexed": false,
          "internalType": "uint256",
          "name": "id",
          "type": "uint256"
        },
        {
          "indexed": false,
          "internalType": "string",
          "name": "name",
          "type": "string"
        },
        {
          "indexed": false,
          "internalType": "string",
          "name": "description",
          "type": "string"
        }
      ],
      "name": "DataUpdated",
      "type": "event"
    },
    {
      "inputs": [
        {
          "internalType": "string",
          "name": "_name",
          "type": "string"
        },
        {
          "internalType": "string",
          "name": "_description",
          "type": "string"
        }
      ],
      "name": "create",
      "outputs": [],
      "stateMutability": "nonpayable",
      "type": "function"
    },
    {
      "inputs": [
        {
          "internalType": "uint256",
          "name": "",
          "type": "uint256"
        }
      ],
      "name": "dataItems",
      "outputs": [
        {
          "internalType": "uint256",
          "name": "id",
          "type": "uint256"
        },
        {
          "internalType": "string",
          "name": "name",
          "type": "string"
        },
        {
          "internalType": "string",
          "name": "description",
          "type": "string"
        }
      ],
      "stateMutability": "view",
      "type": "function"
    },
    {
      "inputs": [],
      "name": "getAllData",
      "outputs": [
        {
          "components": [
            {
              "internalType": "uint256",
              "name": "id",
              "type": "uint256"
            },
            {
              "internalType": "string",
              "name": "name",
              "type": "string"
            },
            {
              "internalType": "string",
              "name": "description",
              "type": "string"
            }
          ],
          "internalType": "struct DataStorage.Data[]",
          "name": "",
          "type": "tuple[]"
        }
      ],
      "stateMutability": "view",
      "type": "function"
    },
    {
      "inputs": [],
      "name": "nextId",
      "outputs": [
        {
          "internalType": "uint256",
          "name": "",
          "type": "uint256"
        }
      ],
      "stateMutability": "view",
      "type": "function"
    },
    {
      "inputs": [
        {
          "internalType": "uint256",
          "name": "_id",
          "type": "uint256"
        }
      ],
      "name": "read",
      "outputs": [
        {
          "internalType": "uint256",
          "name": "",
          "type": "uint256"
        },
        {
          "internalType": "string",
          "name": "",
          "type": "string"
        },
        {
          "internalType": "string",
          "name": "",
          "type": "string"
        }
      ],
      "stateMutability": "view",
      "type": "function"
    },
    {
      "inputs": [
        {
          "internalType": "uint256",
          "name": "_id",
          "type": "uint256"
        }
      ],
      "name": "remove",
      "outputs": [],
      "stateMutability": "nonpayable",
      "type": "function"
    },
    {
      "inputs": [
        {
          "internalType": "uint256",
          "name": "_id",
          "type": "uint256"
        },
        {
          "internalType": "string",
          "name": "_name",
          "type": "string"
        },
        {
          "internalType": "string",
          "name": "_description",
          "type": "string"
        }
      ],
      "name": "update",
      "outputs": [],
      "stateMutability": "nonpayable",
      "type": "function"
    }
  ],
  "bytecode": "0x60806040526001805534801561001457600080fd5b506112ca806100246000396000f3fe608060405234801561001057600080fd5b506004361061007d5760003560e01c806361b8ce8c1161005b57806361b8ce8c146100d8578063968a76cf146100f6578063ed2e5a9714610128578063f95e0a541461015a5761007d565b8063198e2b8a146100825780632d10fa281461009e5780634cc82215146100bc575b600080fd5b61009c60048036038101906100979190610a88565b610176565b005b6100a661024f565b6040516100b39190610cb1565b60405180910390f35b6100d660048036038101906100d19190610cff565b6103dc565b005b6100e06104bf565b6040516100ed9190610d3b565b60405180910390f35b610110600480360381019061010b9190610cff565b6104c5565b60405161011f93929190610da0565b60405180910390f35b610142600480360381019061013d9190610cff565b61060f565b60405161015193929190610da0565b60405180910390f35b610174600480360381019061016f9190610de5565b6107eb565b005b6000604051806060016040528060015481526020018481526020018381525090806001815401808255809150506001900390600052602060002090600302016000909190919091506000820151816000015560208201518160010190816101dd919061107c565b5060408201518160020190816101f3919061107c565b5050507f8e751cc4be6757c4ea5c712f05d8e1d25e2303e254c268164a6d191af0881198600154838360405161022b93929190610da0565b60405180910390a1600160008154809291906102469061117d565b91905055505050565b60606000805480602002602001604051908101604052809291908181526020016000905b828210156103d35783829060005260206000209060030201604051806060016040529081600082015481526020016001820180546102b090610e9f565b80601f01602080910402602001604051908101604052809291908181526020018280546102dc90610e9f565b80156103295780601f106102fe57610100808354040283529160200191610329565b820191906000526020600020905b81548152906001019060200180831161030c57829003601f168201915b5050505050815260200160028201805461034290610e9f565b80601f016020809104026020016040519081016040528092919081815260200182805461036e90610e9f565b80156103bb5780601f10610390576101008083540402835291602001916103bb565b820191906000526020600020905b81548152906001019060200180831161039e57829003601f168201915b50505050508152505081526020019060010190610273565b50505050905090565b6000811180156103ed575060015481105b61042c576040517f08c379a000000000000000000000000000000000000000000000000000000000815260040161042390611211565b60405180910390fd5b600060018261043b9190611231565b8154811061044c5761044b611265565b5b906000526020600020906003020160008082016000905560018201600061047391906108d1565b60028201600061048391906108d1565b50507fc08afd407b9302167fb675f0504288e953f9807568a5e2b502d47ea8bc6dcbed816040516104b49190610d3b565b60405180910390a150565b60015481565b600081815481106104d557600080fd5b90600052602060002090600302016000915090508060000154908060010180546104fe90610e9f565b80601f016020809104026020016040519081016040528092919081815260200182805461052a90610e9f565b80156105775780601f1061054c57610100808354040283529160200191610577565b820191906000526020600020905b81548152906001019060200180831161055a57829003601f168201915b50505050509080600201805461058c90610e9f565b80601f01602080910402602001604051908101604052809291908181526020018280546105b890610e9f565b80156106055780601f106105da57610100808354040283529160200191610605565b820191906000526020600020905b8154815290600101906020018083116105e857829003601f168201915b5050505050905083565b6000606080600084118015610625575060015484105b610664576040517f08c379a000000000000000000000000000000000000000000000000000000000815260040161065b90611211565b60405180910390fd5b6000806001866106749190611231565b8154811061068557610684611265565b5b9060005260206000209060030201604051806060016040529081600082015481526020016001820180546106b890610e9f565b80601f01602080910402602001604051908101604052809291908181526020018280546106e490610e9f565b80156107315780601f1061070657610100808354040283529160200191610731565b820191906000526020600020905b81548152906001019060200180831161071457829003601f168201915b5050505050815260200160028201805461074a90610e9f565b80601f016020809104026020016040519081016040528092919081815260200182805461077690610e9f565b80156107c35780601f10610798576101008083540402835291602001916107c3565b820191906000526020600020905b8154815290600101906020018083116107a657829003601f168201915b5050505050815250509050806000015181602001518260400151935093509350509193909250565b6000831180156107fc575060015483105b61083b576040517f08c379a000000000000000000000000000000000000000000000000000000000815260040161083290611211565b60405180910390fd5b60008060018561084b9190611231565b8154811061085c5761085b611265565b5b906000526020600020906003020190508281600101908161087d919061107c565b508181600201908161088f919061107c565b507f70fc7d66686bb9a40f0b9075882d22a152689e4619fc666c06c2b3b51befa3c88484846040516108c393929190610da0565b60405180910390a150505050565b5080546108dd90610e9f565b6000825580601f106108ef575061090e565b601f01602090049060005260206000209081019061090d9190610911565b5b50565b5b8082111561092a576000816000905550600101610912565b5090565b6000604051905090565b600080fd5b600080fd5b600080fd5b600080fd5b6000601f19601f8301169050919050565b7f4e487b7100000000000000000000000000000000000000000000000000000000600052604160045260246000fd5b6109958261094c565b810181811067ffffffffffffffff821117156109b4576109b361095d565b5b80604052505050565b60006109c761092e565b90506109d3828261098c565b919050565b600067ffffffffffffffff8211156109f3576109f261095d565b5b6109fc8261094c565b9050602081019050919050565b82818337600083830152505050565b6000610a2b610a26846109d8565b6109bd565b905082815260208101848484011115610a4757610a46610947565b5b610a52848285610a09565b509392505050565b600082601f830112610a6f57610a6e610942565b5b8135610a7f848260208601610a18565b91505092915050565b60008060408385031215610a9f57610a9e610938565b5b600083013567ffffffffffffffff811115610abd57610abc61093d565b5b610ac985828601610a5a565b925050602083013567ffffffffffffffff811115610aea57610ae961093d565b5b610af685828601610a5a565b9150509250929050565b600081519050919050565b600082825260208201905092915050565b6000819050602082019050919050565b6000819050919050565b610b3f81610b2c565b82525050565b600081519050919050565b600082825260208201905092915050565b60005b83811015610b7f578082015181840152602081019050610b64565b60008484015250505050565b6000610b9682610b45565b610ba08185610b50565b9350610bb0818560208601610b61565b610bb98161094c565b840191505092915050565b6000606083016000830151610bdc6000860182610b36565b5060208301518482036020860152610bf48282610b8b565b91505060408301518482036040860152610c0e8282610b8b565b9150508091505092915050565b6000610c278383610bc4565b905092915050565b6000602082019050919050565b6000610c4782610b00565b610c518185610b0b565b935083602082028501610c6385610b1c565b8060005b85811015610c9f5784840389528151610c808582610c1b565b9450610c8b83610c2f565b925060208a01995050600181019050610c67565b50829750879550505050505092915050565b60006020820190508181036000830152610ccb8184610c3c565b905092915050565b610cdc81610b2c565b8114610ce757600080fd5b50565b600081359050610cf981610cd3565b92915050565b600060208284031215610d1557610d14610938565b5b6000610d2384828501610cea565b91505092915050565b610d3581610b2c565b82525050565b6000602082019050610d506000830184610d2c565b92915050565b600082825260208201905092915050565b6000610d7282610b45565b610d7c8185610d56565b9350610d8c818560208601610b61565b610d958161094c565b840191505092915050565b6000606082019050610db56000830186610d2c565b8181036020830152610dc78185610d67565b90508181036040830152610ddb8184610d67565b9050949350505050565b600080600060608486031215610dfe57610dfd610938565b5b6000610e0c86828701610cea565b935050602084013567ffffffffffffffff811115610e2d57610e2c61093d565b5b610e3986828701610a5a565b925050604084013567ffffffffffffffff811115610e5a57610e5961093d565b5b610e6686828701610a5a565b9150509250925092565b7f4e487b7100000000000000000000000000000000000000000000000000000000600052602260045260246000fd5b60006002820490506001821680610eb757607f821691505b602082108103610eca57610ec9610e70565b5b50919050565b60008190508160005260206000209050919050565b60006020601f8301049050919050565b600082821b905092915050565b600060088302610f327fffffffffffffffffffffffffffffffffffffffffffffffffffffffffffffffff82610ef5565b610f3c8683610ef5565b95508019841693508086168417925050509392505050565b6000819050919050565b6000610f79610f74610f6f84610b2c565b610f54565b610b2c565b9050919050565b6000819050919050565b610f9383610f5e565b610fa7610f9f82610f80565b848454610f02565b825550505050565b600090565b610fbc610faf565b610fc7818484610f8a565b505050565b5b81811015610feb57610fe0600082610fb4565b600181019050610fcd565b5050565b601f8211156110305761100181610ed0565b61100a84610ee5565b81016020851015611019578190505b61102d61102585610ee5565b830182610fcc565b50505b505050565b600082821c905092915050565b600061105360001984600802611035565b1980831691505092915050565b600061106c8383611042565b9150826002028217905092915050565b61108582610b45565b67ffffffffffffffff81111561109e5761109d61095d565b5b6110a88254610e9f565b6110b3828285610fef565b600060209050601f8311600181146110e657600084156110d4578287015190505b6110de8582611060565b865550611146565b601f1984166110f486610ed0565b60005b8281101561111c578489015182556001820191506020850194506020810190506110f7565b868310156111395784890151611135601f891682611042565b8355505b6001600288020188555050505b505050505050565b7f4e487b7100000000000000000000000000000000000000000000000000000000600052601160045260246000fd5b600061118882610b2c565b91507fffffffffffffffffffffffffffffffffffffffffffffffffffffffffffffffff82036111ba576111b961114e565b5b600182019050919050565b7f496e76616c696420494400000000000000000000000000000000000000000000600082015250565b60006111fb600a83610d56565b9150611206826111c5565b602082019050919050565b6000602082019050818103600083015261122a816111ee565b9050919050565b600061123c82610b2c565b915061124783610b2c565b925082820390508181111561125f5761125e61114e565b5b92915050565b7f4e487b7100000000000000000000000000000000000000000000000000000000600052603260045260246000fdfea264697066735822122068e1aa1de8f286fe725b6ee0128776e54d1c07c40f1193135d9fcce166a9be9f64736f6c63430008140033",
  "linkReferences": {},
  "deployedLinkReferences": {}
}